:020000001328C3
:100008007E1480318B1E09280A2811280B1D0D2803
:100018000E2811288231622280317E1009001428AE
:100028008231AA228031C4008231AB228031C500DE
:100038008231AC228031C600AF01B001B101B201FA
:10004800B301B401B501B601B701B801B901BA01EC
:100058007E1020002F2882312722803121008C1227
:1000680000302000AD000030AC000030AB000030A4
:10007800AA0081319C218031003A031D442846287A
:100088000130472800302000AE0000308131E121E6
:10009800803171082000A7007008A60007302000F2
:1000A800A5007D30890B5628A50B562802308131D2
:1000B800E121803171082000A9007008A8000730EC
:1000C8002000A5007D30890B6728A50B6728023022
:1000D80020002702EF3003192602031C7428752814
:1000E800BD2802302902EF3003192802031C7D289D
:1000F8007E28BD282E08031D822883289F282200D9
:100108008C162000AE01AE0A2A3082313A228031A4
:10011800200046030319912892289F28F201F20A29
:100128008030F3000730F40001308031E020803166
:100138002000C601C60A2A30813155218031003A93
:100148000319A728A828D52822008C122000AE0160
:1001580046080319B028B128D528F2018030F300E9
:100168000730F40001308031E02080312000C601E2
:10017800D5282E03031DC128C228D52822008C1299
:100188002000AE0146080319CA28CB28D528F20159
:100198008030F3000730F40001308031E0208031F6
:1001A800BA2882302000A500DD30890BD928A50B9C
:1001B800D928003249281328F9007903031DE528B6
:1001C800E628EB287408F8007308F700F12873088C
:1001D8000F3EF7000030743DF8001030FA00780840
:1001E800F1007708F0008231562280317903031D2F
:1001F800FE28FF2834293F3023001406031D052953
:10020800062913297208F500F60175089300760887
:100218009400941614128231802280314D290130C5
:10022800F7070030F83D02307A0203181C291D290F
:1002380046291430950074089200730891008231A1
:100248004A2280317208F500F601750823009300F0
:10025800760894009416141282318022803146293F
:100268002300941E3829392942293F3014060319DE
:100278003E293F2942291308F2004D290130F7028F
:100288000030F83B0130FA027A08031D4C294D2949
:10029800F3287208F500F6017508F2007608F300F5
:1002A80008002000A40082316D22813173082000EB
:1002B800A3007208A2007108A1007008A000240819
:1002C80086008701403FF400413FF500423FF600B9
:1002D800433FF7002008F8002108F9002208FA0037
:1002E8002308FB007408F8027508F93B7608FA3B06
:1002F8007708FB3B7B08031D8C297A08031D8C2992
:10030800943078020330793B031C8B298C299A2975
:1003180020002408860087012008C03F2108C13F2B
:100328002208C23F2308C33F01309B290030080040
:10033800F2018030F3000730F40000308031E02013
:1003480081317208FD007D03031DAB29AC29BA2950
:1003580022008C160630FC001330FB00AE30890BEF
:10036800B329FB0BB329FC0BB329BD2922008C123E
:10037800AE297D080800083023009F0090309D00BA
:1003880024309E0067309B009C010030F000003054
:10039800F10082319A2281310030F0000030F10002
:1003A8008231942281310030F0000030F100823136
:1003B800A02281312000BA010800F3007308F2007E
:1003C800F20DF20D21001D087206833972069D0098
:1003D8001D1400320032000021009D149D18F529DB
:1003E800F629F2291C08F1001B08F0000800220079
:1003F8008C011F3021008C00053023008C00240064
:100408008C012100951725008C01373026008C00BF
:100418003F3027008C00043022009D000800210096
:100428001508C03917389500F63020009500F630C9
:10043800C3000B118B160030F0000030F100823140
:100448008E22823108008131FB218231823187225C
:1004580082318231A6228231823177228231823101
:10046800132282318131BF2182310800F4008231A8
:100478006D2282317408860087017008C03F7108B8
:10048800C13F7208C23F7308C33F080055302300BC
:100498009600AA30960095149518532A542A502A83
:1004A80015110800710823009200700891000130AE
:1004B80095001518602A612A5D2A0800013020007D
:1004C800B3070030B43D0030B53D0030B63D0B11E8
:1004D800080020003608F3003508F2003408F1005F
:1004E8003308F0000800803021009E009F019B0126
:1004F8009C0101309D0008000430230095008231E2
:100508004A228231080068302100990098012200AF
:100518009601080071082000C2007008C100080098
:1005280071082000BE007008BD0008007108200096
:10053800C0007008BF00080071082000BC007008E7
:10054800BB00080016302100970008000A34003468
:02055800FF346E
:020000040001F9
:08000000FF3FFF3FFF3FFF3F00
:04000E00FC3FFF3E76
:00000001FF
